{
  "contractName": "PropertyList",
  "abi": [
    {
      "anonymous": false,
      "inputs": [
        {
          "indexed": false,
          "internalType": "uint256",
          "name": "propId",
          "type": "uint256"
        },
        {
          "indexed": false,
          "internalType": "bool",
          "name": "sell",
          "type": "bool"
        }
      ],
      "name": "PropertyAdded",
      "type": "event"
    },
    {
      "anonymous": false,
      "inputs": [
        {
          "indexed": false,
          "internalType": "bool",
          "name": "sell",
          "type": "bool"
        }
      ],
      "name": "PropertyBought",
      "type": "event"
    },
    {
      "constant": true,
      "inputs": [],
      "name": "propCount",
      "outputs": [
        {
          "internalType": "uint256",
          "name": "",
          "type": "uint256"
        }
      ],
      "payable": false,
      "stateMutability": "view",
      "type": "function"
    },
    {
      "constant": true,
      "inputs": [
        {
          "internalType": "uint256",
          "name": "",
          "type": "uint256"
        }
      ],
      "name": "propList",
      "outputs": [
        {
          "internalType": "uint256",
          "name": "propId",
          "type": "uint256"
        },
        {
          "internalType": "uint256",
          "name": "plotSize",
          "type": "uint256"
        },
        {
          "internalType": "string",
          "name": "location",
          "type": "string"
        },
        {
          "internalType": "uint256",
          "name": "price",
          "type": "uint256"
        },
        {
          "internalType": "address payable",
          "name": "owner",
          "type": "address"
        },
        {
          "internalType": "bool",
          "name": "sell",
          "type": "bool"
        }
      ],
      "payable": false,
      "stateMutability": "view",
      "type": "function"
    },
    {
      "constant": true,
      "inputs": [
        {
          "internalType": "uint256",
          "name": "propId",
          "type": "uint256"
        }
      ],
      "name": "getPropertyDeedById",
      "outputs": [
        {
          "internalType": "string",
          "name": "",
          "type": "string"
        }
      ],
      "payable": false,
      "stateMutability": "view",
      "type": "function"
    },
    {
      "constant": false,
      "inputs": [
        {
          "internalType": "uint256",
          "name": "_plotSize",
          "type": "uint256"
        },
        {
          "internalType": "string",
          "name": "_location",
          "type": "string"
        },
        {
          "internalType": "uint256",
          "name": "_price",
          "type": "uint256"
        },
        {
          "internalType": "string",
          "name": "_deedval",
          "type": "string"
        }
      ],
      "name": "addProperty",
      "outputs": [],
      "payable": false,
      "stateMutability": "nonpayable",
      "type": "function"
    },
    {
      "constant": false,
      "inputs": [
        {
          "internalType": "uint256",
          "name": "propId",
          "type": "uint256"
        }
      ],
      "name": "buyProperty",
      "outputs": [],
      "payable": true,
      "stateMutability": "payable",
      "type": "function"
    },
    {
      "constant": false,
      "inputs": [
        {
          "internalType": "uint256",
          "name": "propId",
          "type": "uint256"
        },
        {
          "internalType": "uint256",
          "name": "selling_price",
          "type": "uint256"
        }
      ],
      "name": "listProperty",
      "outputs": [],
      "payable": false,
      "stateMutability": "nonpayable",
      "type": "function"
    }
  ],
  "bytecode": "0x60806040526000805534801561001457600080fd5b5061089d806100246000396000f3fe6080604052600436106100555760003560e01c806333bc7bf01461005a5780633d9f55e7146100815780634eda529b1461015c57806350f3f58a1461018e5780636fa830a6146102d75780638ff5fbd1146102f4575b600080fd5b34801561006657600080fd5b5061006f610393565b60408051918252519081900360200190f35b34801561008d57600080fd5b506100ab600480360360208110156100a457600080fd5b5035610399565b6040518087815260200186815260200180602001858152602001846001600160a01b03166001600160a01b0316815260200183151515158152602001828103825286818151815260200191508051906020019080838360005b8381101561011c578181015183820152602001610104565b50505050905090810190601f1680156101495780820380516001836020036101000a031916815260200191505b5097505050505050505060405180910390f35b34801561016857600080fd5b5061018c6004803603604081101561017f57600080fd5b508035906020013561047c565b005b34801561019a57600080fd5b5061018c600480360360808110156101b157600080fd5b813591908101906040810160208201356401000000008111156101d357600080fd5b8201836020820111156101e557600080fd5b8035906020019184600183028401116401000000008311171561020757600080fd5b91908080601f0160208091040260200160405190810160405280939291908181526020018383808284376000920191909152509295843595909490935060408101925060200135905064010000000081111561026257600080fd5b82018360208201111561027457600080fd5b8035906020019184600183028401116401000000008311171561029657600080fd5b91908080601f0160208091040260200160405190810160405280939291908181526020018383808284376000920191909152509295506104a6945050505050565b61018c600480360360208110156102ed57600080fd5b50356105e4565b34801561030057600080fd5b5061031e6004803603602081101561031757600080fd5b50356106df565b6040805160208082528351818301528351919283929083019185019080838360005b83811015610358578181015183820152602001610340565b50505050905090810190601f1680156103855780820380516001836020036101000a031916815260200191505b509250505060405180910390f35b60005481565b6001602052806000526040600020600091509050806000015490806001015490806002018054600181600116156101000203166002900480601f0160208091040260200160405190810160405280929190818152602001828054600181600116156101000203166002900480156104515780601f1061042657610100808354040283529160200191610451565b820191906000526020600020905b81548152906001019060200180831161043457829003601f168201915b5050505060038301546004909301549192916001600160a01b0381169150600160a01b900460ff1686565b60009182526001602052604090912060048101805460ff60a01b1916600160a01b17905560030155565b6000805460019081018083556040805160c08101825282815260208082018a81528284018a8152606084018a905233608085015260a084018790529487528582529290952081518155915193820193909355905180519293919261051092600285019201906107cd565b506060820151600382015560808201516004909101805460a0909301511515600160a01b0260ff60a01b196001600160a01b039093166001600160a01b03199094169390931791909116919091179055604080518082018252600080548083526020808401868152918352600281529390912082518155905180519293919261059f92600185019201906107cd565b5050600054604080519182526001602083015280517f8834ceefa5324306ea29337acf3e36864367dc06e7ce914c926764c66b55ea479350918290030190a150505050565b600081815260016020819052604090912060040154600160a01b900460ff161515141561067a576000818152600160205260408082206004015490516001600160a01b03909116913480156108fc02929091818181858888f19350505050158015610653573d6000803e3d6000fd5b50600081815260016020526040902060040180546001600160a81b031916331790556106a8565b60405133903480156108fc02916000818181858888f193505050501580156106a6573d6000803e3d6000fd5b505b604080516000815290517f37dfcd3f282e55bc453d4a32eb3419b94968161681518084f9daaa9ded8348539181900360200190a150565b6000818152600160205260409020600401546060906001600160a01b03163314156107a2576000828152600260208181526040928390206001908101805485519281161561010002600019011693909304601f810183900483028201830190945283815292908301828280156107965780601f1061076b57610100808354040283529160200191610796565b820191906000526020600020905b81548152906001019060200180831161077957829003601f168201915b505050505090506107c8565b5060408051808201909152600d81526c4e6f7420417661696c61626c6560981b60208201525b919050565b828054600181600116156101000203166002900490600052602060002090601f016020900481019282601f1061080e57805160ff191683800117855561083b565b8280016001018555821561083b579182015b8281111561083b578251825591602001919060010190610820565b5061084792915061084b565b5090565b61086591905b808211156108475760008155600101610851565b9056fea265627a7a72315820b2a50697b97f236c7b34f5679b8f45342c1eb3045c7b27a928861893227f7e4064736f6c63430005100032",
  "source": "pragma solidity ^0.5.0;\r\n\r\n\r\ncontract PropertyList\r\n{\r\n\r\n\t/*\r\n\tmodifier onlyOwner(uint propId) {\r\n    \trequire(propList[propId].owner == msg.sender);\r\n        _;\r\n    }\r\n    */\r\n\r\n\tuint256 public propCount = 0;\r\n\tmapping(uint => Property) public propList;\r\n\tmapping(uint => PropertyDeed) private propDeedList;\r\n\r\n\tstruct Property {\r\n\t\tuint propId;\r\n\t\tuint plotSize;\r\n\t\tstring location;\r\n\t\tuint price;\r\n\t\taddress payable owner;\r\n\t\tbool sell;\r\n\t\t\r\n\t}\r\n\r\n\tstruct PropertyDeed {\r\n\t\tuint deedId;\r\n\t\tstring deedVal;\r\n\t}\r\n\r\n\tevent PropertyAdded(\r\n    uint propId,\r\n    bool sell\r\n  \t);\r\n  \tevent PropertyBought(\r\n    bool sell\r\n  \t);\r\n  \t\r\n\tfunction getPropertyDeedById(uint propId) view public returns(string memory){\r\n\r\n\t\tif (msg.sender == propList[propId].owner)\r\n\t\t\t\r\n\t\t\treturn propDeedList[propId].deedVal;\r\n\t\telse\r\n\t\t\t\r\n\t\t\treturn \"Not Available\";\r\n\r\n\r\n\t}\r\n\r\n\r\n\tfunction addProperty(uint _plotSize, string memory _location, uint _price, string memory _deedval) public {\r\n\t\tpropCount += 1;\r\n\t\tpropList[propCount] = Property(propCount,_plotSize, _location, _price, msg.sender, true);\r\n\t\tpropDeedList[propCount] = PropertyDeed(propCount, _deedval);\r\n\t\temit PropertyAdded(propCount, true);\r\n\t}\r\n\r\n\r\n\tfunction buyProperty(uint propId) public payable{\r\n\r\n\t\tif (propList[propId].sell == true)\r\n\t\t{\r\n\r\n\t\t\t(propList[propId].owner).transfer(msg.value);\r\n\r\n\t\t\tpropList[propId].sell = false;\r\n\t\t\tpropList[propId].owner = msg.sender;\r\n\t\t}\r\n\t\telse\r\n\t\t{\r\n\t\t\t(msg.sender).transfer(msg.value);\r\n\r\n\t\t}\r\n\t\temit PropertyBought(false);\r\n\r\n\t}\r\n\tfunction listProperty(uint propId, uint selling_price) public{\r\n\t\tpropList[propId].sell = true;\r\n\t\tpropList[propId].price = selling_price;\r\n\t}\r\n\r\n}",
  "sourcePath": "/home/coder/project/workspace/Blockchain-Real-Estate-Application-BC_Team_11/contracts/PropertyList.sol",
  "compiler": {
    "name": "solc",
    "version": "0.5.16+commit.9c3226ce.Emscripten.clang"
  },
  "schemaVersion": "3.3.4",
  "updatedAt": "2021-04-05T12:08:00.020Z",
  "networkType": "ethereum",
  "devdoc": {
    "methods": {}
  },
  "userdoc": {
    "methods": {}
  }
}